{
  "address": "0xF7a4f46dc895144b1a4Efb7a5789F76F35dD02Ab",
  "abi": [
    {
      "inputs": [],
      "stateMutability": "nonpayable",
      "type": "constructor"
    },
    {
      "anonymous": false,
      "inputs": [
        {
          "indexed": true,
          "internalType": "address",
          "name": "token",
          "type": "address"
        },
        {
          "indexed": false,
          "internalType": "uint256",
          "name": "serialNumber",
          "type": "uint256"
        },
        {
          "indexed": true,
          "internalType": "address",
          "name": "owner",
          "type": "address"
        },
        {
          "indexed": true,
          "internalType": "address",
          "name": "buyer",
          "type": "address"
        },
        {
          "indexed": false,
          "internalType": "uint256",
          "name": "acceptedBidAmount",
          "type": "uint256"
        }
      ],
      "name": "AcceptBid",
      "type": "event"
    },
    {
      "anonymous": false,
      "inputs": [
        {
          "indexed": true,
          "internalType": "address",
          "name": "token",
          "type": "address"
        },
        {
          "indexed": false,
          "internalType": "uint256",
          "name": "serialNumber",
          "type": "uint256"
        },
        {
          "indexed": true,
          "internalType": "address",
          "name": "owner",
          "type": "address"
        },
        {
          "indexed": true,
          "internalType": "address",
          "name": "buyer",
          "type": "address"
        },
        {
          "indexed": false,
          "internalType": "uint256",
          "name": "amount",
          "type": "uint256"
        }
      ],
      "name": "AddBid",
      "type": "event"
    },
    {
      "anonymous": false,
      "inputs": [
        {
          "indexed": true,
          "internalType": "address",
          "name": "token",
          "type": "address"
        },
        {
          "indexed": true,
          "internalType": "uint256",
          "name": "serialNumber",
          "type": "uint256"
        },
        {
          "indexed": true,
          "internalType": "address",
          "name": "owner",
          "type": "address"
        },
        {
          "indexed": false,
          "internalType": "uint256",
          "name": "amount",
          "type": "uint256"
        }
      ],
      "name": "DeleteBid",
      "type": "event"
    },
    {
      "anonymous": false,
      "inputs": [
        {
          "indexed": true,
          "internalType": "address",
          "name": "token",
          "type": "address"
        },
        {
          "indexed": true,
          "internalType": "uint256",
          "name": "serialNumber",
          "type": "uint256"
        },
        {
          "indexed": true,
          "internalType": "address",
          "name": "_owner",
          "type": "address"
        },
        {
          "indexed": false,
          "internalType": "uint256",
          "name": "price",
          "type": "uint256"
        }
      ],
      "name": "ListNFT",
      "type": "event"
    },
    {
      "anonymous": false,
      "inputs": [
        {
          "indexed": true,
          "internalType": "address",
          "name": "token",
          "type": "address"
        },
        {
          "indexed": true,
          "internalType": "uint256",
          "name": "serialNumber",
          "type": "uint256"
        },
        {
          "indexed": true,
          "internalType": "address",
          "name": "owner",
          "type": "address"
        },
        {
          "indexed": false,
          "internalType": "uint256",
          "name": "price",
          "type": "uint256"
        }
      ],
      "name": "UnlistNFT",
      "type": "event"
    },
    {
      "stateMutability": "payable",
      "type": "fallback"
    },
    {
      "inputs": [
        {
          "internalType": "address",
          "name": "_token",
          "type": "address"
        },
        {
          "internalType": "uint256",
          "name": "_serialNumber",
          "type": "uint256"
        },
        {
          "internalType": "address payable",
          "name": "_buyer",
          "type": "address"
        },
        {
          "internalType": "uint256",
          "name": "_acceptedBidAmount",
          "type": "uint256"
        }
      ],
      "name": "acceptBid",
      "outputs": [
        {
          "internalType": "uint256",
          "name": "",
          "type": "uint256"
        }
      ],
      "stateMutability": "nonpayable",
      "type": "function"
    },
    {
      "inputs": [
        {
          "internalType": "address",
          "name": "_token",
          "type": "address"
        },
        {
          "internalType": "uint256",
          "name": "_serialNumber",
          "type": "uint256"
        },
        {
          "internalType": "uint256",
          "name": "tokenAmount",
          "type": "uint256"
        }
      ],
      "name": "addBid",
      "outputs": [
        {
          "internalType": "uint256",
          "name": "",
          "type": "uint256"
        }
      ],
      "stateMutability": "payable",
      "type": "function"
    },
    {
      "inputs": [
        {
          "internalType": "address",
          "name": "",
          "type": "address"
        },
        {
          "internalType": "string",
          "name": "",
          "type": "string"
        }
      ],
      "name": "buyersBidsIndexes",
      "outputs": [
        {
          "internalType": "uint256",
          "name": "tokenIndex",
          "type": "uint256"
        },
        {
          "internalType": "uint256",
          "name": "receivedIndex",
          "type": "uint256"
        },
        {
          "internalType": "uint256",
          "name": "sentIndex",
          "type": "uint256"
        },
        {
          "internalType": "bool",
          "name": "isSet",
          "type": "bool"
        }
      ],
      "stateMutability": "view",
      "type": "function"
    },
    {
      "inputs": [
        {
          "internalType": "address",
          "name": "",
          "type": "address"
        }
      ],
      "name": "buyersTokens",
      "outputs": [
        {
          "internalType": "uint256",
          "name": "sphs",
          "type": "uint256"
        }
      ],
      "stateMutability": "view",
      "type": "function"
    },
    {
      "inputs": [
        {
          "internalType": "uint256",
          "name": "_newFee",
          "type": "uint256"
        }
      ],
      "name": "changeTaxFee",
      "outputs": [],
      "stateMutability": "nonpayable",
      "type": "function"
    },
    {
      "inputs": [
        {
          "internalType": "address",
          "name": "_token",
          "type": "address"
        },
        {
          "internalType": "uint256",
          "name": "_serialNumber",
          "type": "uint256"
        },
        {
          "internalType": "address payable",
          "name": "_buyer",
          "type": "address"
        }
      ],
      "name": "deleteBid",
      "outputs": [
        {
          "internalType": "uint256",
          "name": "",
          "type": "uint256"
        }
      ],
      "stateMutability": "nonpayable",
      "type": "function"
    },
    {
      "inputs": [
        {
          "internalType": "address",
          "name": "_owner",
          "type": "address"
        },
        {
          "internalType": "uint64",
          "name": "page",
          "type": "uint64"
        },
        {
          "internalType": "uint64",
          "name": "pageSize",
          "type": "uint64"
        }
      ],
      "name": "getReceivedBids",
      "outputs": [
        {
          "components": [
            {
              "internalType": "address payable",
              "name": "owner",
              "type": "address"
            },
            {
              "internalType": "uint256",
              "name": "amount",
              "type": "uint256"
            },
            {
              "internalType": "address",
              "name": "token",
              "type": "address"
            },
            {
              "internalType": "uint256",
              "name": "serialNumber",
              "type": "uint256"
            }
          ],
          "internalType": "struct NFTMarketplace.Bid[]",
          "name": "",
          "type": "tuple[]"
        }
      ],
      "stateMutability": "view",
      "type": "function"
    },
    {
      "inputs": [
        {
          "internalType": "address",
          "name": "_buyer",
          "type": "address"
        },
        {
          "internalType": "uint64",
          "name": "page",
          "type": "uint64"
        },
        {
          "internalType": "uint64",
          "name": "pageSize",
          "type": "uint64"
        }
      ],
      "name": "getSentBids",
      "outputs": [
        {
          "components": [
            {
              "internalType": "address payable",
              "name": "owner",
              "type": "address"
            },
            {
              "internalType": "uint256",
              "name": "amount",
              "type": "uint256"
            },
            {
              "internalType": "address",
              "name": "token",
              "type": "address"
            },
            {
              "internalType": "uint256",
              "name": "serialNumber",
              "type": "uint256"
            }
          ],
          "internalType": "struct NFTMarketplace.Bid[]",
          "name": "",
          "type": "tuple[]"
        }
      ],
      "stateMutability": "view",
      "type": "function"
    },
    {
      "inputs": [
        {
          "internalType": "address",
          "name": "_token",
          "type": "address"
        },
        {
          "internalType": "uint256",
          "name": "_serialNumber",
          "type": "uint256"
        },
        {
          "internalType": "address",
          "name": "_buyer",
          "type": "address"
        }
      ],
      "name": "getTokenBid",
      "outputs": [
        {
          "components": [
            {
              "internalType": "address payable",
              "name": "owner",
              "type": "address"
            },
            {
              "internalType": "uint256",
              "name": "amount",
              "type": "uint256"
            },
            {
              "internalType": "address",
              "name": "token",
              "type": "address"
            },
            {
              "internalType": "uint256",
              "name": "serialNumber",
              "type": "uint256"
            }
          ],
          "internalType": "struct NFTMarketplace.Bid",
          "name": "",
          "type": "tuple"
        }
      ],
      "stateMutability": "view",
      "type": "function"
    },
    {
      "inputs": [
        {
          "internalType": "address",
          "name": "_token",
          "type": "address"
        },
        {
          "internalType": "uint256",
          "name": "_serialNumber",
          "type": "uint256"
        },
        {
          "internalType": "uint64",
          "name": "page",
          "type": "uint64"
        },
        {
          "internalType": "uint64",
          "name": "pageSize",
          "type": "uint64"
        }
      ],
      "name": "getTokenBids",
      "outputs": [
        {
          "components": [
            {
              "internalType": "address payable",
              "name": "owner",
              "type": "address"
            },
            {
              "internalType": "uint256",
              "name": "amount",
              "type": "uint256"
            },
            {
              "internalType": "address",
              "name": "token",
              "type": "address"
            },
            {
              "internalType": "uint256",
              "name": "serialNumber",
              "type": "uint256"
            }
          ],
          "internalType": "struct NFTMarketplace.Bid[]",
          "name": "",
          "type": "tuple[]"
        }
      ],
      "stateMutability": "view",
      "type": "function"
    },
    {
      "inputs": [
        {
          "internalType": "address[]",
          "name": "_tokens",
          "type": "address[]"
        },
        {
          "internalType": "uint256[]",
          "name": "_serialNumbers",
          "type": "uint256[]"
        },
        {
          "internalType": "uint256[]",
          "name": "_prices",
          "type": "uint256[]"
        }
      ],
      "name": "listNFT",
      "outputs": [
        {
          "internalType": "uint256",
          "name": "",
          "type": "uint256"
        }
      ],
      "stateMutability": "nonpayable",
      "type": "function"
    },
    {
      "inputs": [
        {
          "internalType": "string",
          "name": "",
          "type": "string"
        }
      ],
      "name": "nfts",
      "outputs": [
        {
          "internalType": "address payable",
          "name": "owner",
          "type": "address"
        },
        {
          "internalType": "uint256",
          "name": "price",
          "type": "uint256"
        },
        {
          "internalType": "address",
          "name": "token",
          "type": "address"
        },
        {
          "internalType": "uint256",
          "name": "serialNumber",
          "type": "uint256"
        },
        {
          "internalType": "bool",
          "name": "isListed",
          "type": "bool"
        }
      ],
      "stateMutability": "view",
      "type": "function"
    },
    {
      "inputs": [
        {
          "internalType": "address",
          "name": "",
          "type": "address"
        },
        {
          "internalType": "uint256",
          "name": "",
          "type": "uint256"
        }
      ],
      "name": "receivedBids",
      "outputs": [
        {
          "internalType": "address payable",
          "name": "owner",
          "type": "address"
        },
        {
          "internalType": "uint256",
          "name": "amount",
          "type": "uint256"
        },
        {
          "internalType": "address",
          "name": "token",
          "type": "address"
        },
        {
          "internalType": "uint256",
          "name": "serialNumber",
          "type": "uint256"
        }
      ],
      "stateMutability": "view",
      "type": "function"
    },
    {
      "inputs": [
        {
          "internalType": "address",
          "name": "_tokenAddress",
          "type": "address"
        }
      ],
      "name": "registerSpheraToken",
      "outputs": [],
      "stateMutability": "nonpayable",
      "type": "function"
    },
    {
      "inputs": [
        {
          "internalType": "uint256",
          "name": "tokenId",
          "type": "uint256"
        },
        {
          "internalType": "uint256",
          "name": "salePrice",
          "type": "uint256"
        }
      ],
      "name": "royaltyInfo",
      "outputs": [
        {
          "internalType": "address",
          "name": "",
          "type": "address"
        },
        {
          "internalType": "uint256",
          "name": "",
          "type": "uint256"
        }
      ],
      "stateMutability": "view",
      "type": "function"
    },
    {
      "inputs": [
        {
          "internalType": "address",
          "name": "",
          "type": "address"
        },
        {
          "internalType": "uint256",
          "name": "",
          "type": "uint256"
        }
      ],
      "name": "sentBids",
      "outputs": [
        {
          "internalType": "address payable",
          "name": "owner",
          "type": "address"
        },
        {
          "internalType": "uint256",
          "name": "amount",
          "type": "uint256"
        },
        {
          "internalType": "address",
          "name": "token",
          "type": "address"
        },
        {
          "internalType": "uint256",
          "name": "serialNumber",
          "type": "uint256"
        }
      ],
      "stateMutability": "view",
      "type": "function"
    },
    {
      "inputs": [
        {
          "internalType": "address",
          "name": "_walletAddress",
          "type": "address"
        }
      ],
      "name": "setTreasuryWalletAddress",
      "outputs": [],
      "stateMutability": "nonpayable",
      "type": "function"
    },
    {
      "inputs": [],
      "name": "spheraTokenAddress",
      "outputs": [
        {
          "internalType": "contract IERC20",
          "name": "",
          "type": "address"
        }
      ],
      "stateMutability": "view",
      "type": "function"
    },
    {
      "inputs": [
        {
          "internalType": "bytes4",
          "name": "interfaceId",
          "type": "bytes4"
        }
      ],
      "name": "supportsInterface",
      "outputs": [
        {
          "internalType": "bool",
          "name": "",
          "type": "bool"
        }
      ],
      "stateMutability": "view",
      "type": "function"
    },
    {
      "inputs": [],
      "name": "taxFee",
      "outputs": [
        {
          "internalType": "uint256",
          "name": "",
          "type": "uint256"
        }
      ],
      "stateMutability": "view",
      "type": "function"
    },
    {
      "inputs": [
        {
          "internalType": "string",
          "name": "",
          "type": "string"
        },
        {
          "internalType": "uint256",
          "name": "",
          "type": "uint256"
        }
      ],
      "name": "tokenBids",
      "outputs": [
        {
          "internalType": "address payable",
          "name": "owner",
          "type": "address"
        },
        {
          "internalType": "uint256",
          "name": "amount",
          "type": "uint256"
        },
        {
          "internalType": "address",
          "name": "token",
          "type": "address"
        },
        {
          "internalType": "uint256",
          "name": "serialNumber",
          "type": "uint256"
        }
      ],
      "stateMutability": "view",
      "type": "function"
    },
    {
      "inputs": [
        {
          "internalType": "address",
          "name": "_token",
          "type": "address"
        },
        {
          "internalType": "uint256",
          "name": "_serialNumber",
          "type": "uint256"
        }
      ],
      "name": "unlistNFT",
      "outputs": [
        {
          "internalType": "uint256",
          "name": "",
          "type": "uint256"
        }
      ],
      "stateMutability": "nonpayable",
      "type": "function"
    },
    {
      "stateMutability": "payable",
      "type": "receive"
    }
  ],
  "transactionHash": "0xe5f8ed999e09a8fc54fdf70dd7c4747e2abfa6d847bfc0f45fc148a0451d9991",
  "args": [],
  "numDeployments": 1,
  "solcInputHash": "4767ddf10785af1c05c2abb3f9e62044",
  "bytecode": "0x60806040526019600b5534801561001557600080fd5b50600880546001600160a01b03191633179055613a2d806100376000396000f3fe60806040526004361061012d5760003560e01c80637fc27efd116100a5578063bc78a32a1161006c578063bc78a32a14610420578063d5cae81f14610440578063d7dbd71b14610460578063e2d4d36014610480578063f2ce238a146104ad578063f40774061461053057005b80637fc27efd1461030d5780639d170dd71461032d578063a071dcf41461034d578063a7e5c46414610363578063b66fb0901461038357005b8063443349b1116100f4578063443349b1146102335780634d0df92b146102605780634e524b5014610280578063584e8d2a146102a05780635efd930b146102c05780636c7f20c0146102e057005b806301ffc9a71461013657806316e807c41461016b5780632a55205a1461018c578063322b71d8146101cb57806332a12a231461020357005b3661013457005b005b34801561014257600080fd5b50610156610151366004613121565b610550565b60405190151581526020015b60405180910390f35b61017e610179366004613163565b610587565b604051908152602001610162565b34801561019857600080fd5b506101ac6101a7366004613198565b610e22565b604080516001600160a01b039093168352602083019190915201610162565b3480156101d757600080fd5b506009546101eb906001600160a01b031681565b6040516001600160a01b039091168152602001610162565b34801561020f57600080fd5b5061022361021e3660046131ba565b610ece565b60405161016294939291906131e6565b34801561023f57600080fd5b5061025361024e36600461322c565b610f22565b604051610162919061327b565b34801561026c57600080fd5b5061013461027b3660046132f5565b610ff0565b34801561028c57600080fd5b5061017e61029b366004613312565b61103c565b3480156102ac57600080fd5b506101346102bb36600461335a565b611764565b3480156102cc57600080fd5b506101346102db3660046132f5565b611793565b3480156102ec57600080fd5b5061017e6102fb3660046132f5565b60066020526000908152604090205481565b34801561031957600080fd5b5061017e6103283660046131ba565b6117df565b34801561033957600080fd5b50610253610348366004613373565b6118f4565b34801561035957600080fd5b5061017e600b5481565b34801561036f57600080fd5b5061017e61037e3660046133b8565b6119a5565b34801561038f57600080fd5b506103e761039e3660046134af565b8051602081830181018051600782529282019190930120915280546001820154600283015460038401546004909401546001600160a01b03938416949293909116919060ff1685565b604080516001600160a01b039687168152602081019590955292909416918301919091526060820152901515608082015260a001610162565b34801561042c57600080fd5b5061022361043b3660046134eb565b611cb8565b34801561044c57600080fd5b5061017e61045b3660046135b2565b611ce3565b34801561046c57600080fd5b5061025361047b366004613373565b6121e8565b34801561048c57600080fd5b506104a061049b3660046133b8565b61227c565b6040516101629190613697565b3480156104b957600080fd5b5061050e6104c83660046136d0565b6005602090815260009283526040909220815180830184018051928152908401929093019190912091528054600182015460028301546003909301549192909160ff1684565b6040805194855260208501939093529183015215156060820152608001610162565b34801561053c57600080fd5b5061022361054b3660046131ba565b6123c1565b60006001600160e01b0319821663152a902d60e11b148061058157506301ffc9a760e01b6001600160e01b03198316145b92915050565b6000338161059586866123dd565b90506007816040516105a7919061374f565b9081526040519081900360200190206004015460ff166105ff5760405162461bcd60e51b815260206004820152600e60248201526d139195081b9bdd081b1a5cdd195960921b60448201526064015b60405180910390fd5b600061060b87876123e9565b905060078260405161061d919061374f565b9081526040519081900360200190205481516001600160a01b039081169116146106a25760405162461bcd60e51b815260206004820152603060248201527f4e6674206f776e657220686173206265656e206368616e6765642e20496e766160448201526f3634b21027232a103634b9ba34b7339760811b60648201526084016105f6565b6009546040516323b872dd60e01b8152336004820152306024820152604481018790526001600160a01b03909116906323b872dd906064016020604051808303816000875af11580156106f9573d6000803e3d6000fd5b505050506040513d601f19601f8201168201806040525081019061071d919061375b565b506001600160a01b038316600090815260066020526040812054900361076c5760408051602080820183528782526001600160a01b03861660009081526006909152919091209051905561079a565b6001600160a01b03831660009081526006602052604081208054879290610794908490613793565b90915550505b6001600160a01b03831660009081526005602052604080822090516107c090859061374f565b908152604080519182900360209081018320608084018352805484526001810154848301526002810154848401526003015460ff16151560608401526001600160a01b0387166000908152600590915281902090519192509061082490859061374f565b9081526040519081900360200190206003015460ff1615610ac0576000600284604051610851919061374f565b908152604051908190036020019020825181548110610872576108726137a6565b600091825260209182902060408051608081018252600490930290910180546001600160a01b03908116845260018201549484018590526002820154169183019190915260030154606082015291506108ce9086908190612505565b866002856040516108df919061374f565b908152604051908190036020019020835181548110610900576109006137a6565b906000526020600020906004020160010181905550866003600060078760405161092a919061374f565b9081526040805160209281900383019020546001600160a01b031683528282019390935291016000209084015181548110610967576109676137a6565b9060005260206000209060040201600101819055508660046000876001600160a01b03166001600160a01b031681526020019081526020016000208360400151815481106109b7576109b76137a6565b9060005260206000209060040201600101819055506007846040516109dc919061374f565b9081526020016040518091039020600101548710610a6c576040516304e524b560e41b81523090634e524b5090610a1d908c908c908a908d906004016131e6565b6020604051808303816000875af1158015610a3c573d6000803e3d6000fd5b505050506040513d601f19601f82011682018060405250810190610a6091906137bc565b95505050505050610e1b565b8251604080518a8152602081018a905233926001600160a01b0390811692908d16917f36d6fe2f8514bad704749bcc0910b552f83180da8b6690b8a953fc2086d9a9c1910160405180910390a46000610a60565b604080516080810182526001600160a01b038087168252602082018990528a1681830152606081018990529051600290610afb90869061374f565b908152604080516020928190038301812080546001808201835560009283528583208751600493840290910180546001600160a01b03199081166001600160a01b039384161782558989018051838601558a890180516002808601805486169288169290921790915560608d018051600396870155338a52888d529a892080548089018255908a529b89208d519c909802909701805484169b86169b909b178b559051948a01949094559251938801805490931693909116929092179055925193830193909355909190600790610bd390889061374f565b9081526040805160209281900383019020546001600160a01b03908116845283830194909452918201600090812080546001808201835591835291839020865160049093020180546001600160a01b0319908116938716939093178155928601518382015585840151600280850180549094169190961617909155606085015160039092019190915581516080810192839052928392610c7490899061374f565b90815260405190819003602001902054610c8e91906137d5565b8152602001600160036000600789604051610ca9919061374f565b9081526040805160209281900383019020546001600160a01b03168352908201929092520160002054610cdc91906137d5565b815233600090815260046020908152604090912054910190610d00906001906137d5565b815260016020918201526001600160a01b038716600090815260059091526040908190209051610d3190879061374f565b9081526040805160209281900383018120845181559284015160018401559083015160028301556060909201516003909101805460ff1916911515919091179055600790610d8090869061374f565b9081526020016040518091039020600101548710610dc45760208101516040516304e524b560e41b81523091634e524b5091610a1d918d918d918b916004016131e6565b8251604080518a8152602081018a905233926001600160a01b0390811692908d16917f36d6fe2f8514bad704749bcc0910b552f83180da8b6690b8a953fc2086d9a9c1910160405180910390a46000955050505050505b9392505050565b60008281526001602090815260408083208151808301909252546001600160a01b038116808352600160a01b9091046001600160601b0316928201929092528291610e975750604080518082019091526000546001600160a01b0381168252600160a01b90046001600160601b031660208201525b602081015160009061271090610eb6906001600160601b0316876137e8565b610ec09190613815565b915196919550909350505050565b60046020528160005260406000208181548110610eea57600080fd5b600091825260209091206004909102018054600182015460028301546003909301546001600160a01b03928316955090935091169084565b60606000610f3086866123dd565b90506000600282604051610f44919061374f565b9081526020016040518091039020805480602002602001604051908101604052809291908181526020016000905b82821015610fd4576000848152602090819020604080516080810182526004860290920180546001600160a01b039081168452600180830154858701526002830154909116928401929092526003015460608301529083529092019101610f72565b505050509050610fe5818686612636565b979650505050505050565b6008546001600160a01b0316331461101a5760405162461bcd60e51b81526004016105f690613829565b600980546001600160a01b0319166001600160a01b0392909216919091179055565b60008061104986866123dd565b905060078160405161105b919061374f565b90815260405190819003602001902054336001600160a01b03909116148061108257503330145b61109e5760405162461bcd60e51b81526004016105f690613859565b6007816040516110ae919061374f565b9081526040519081900360200190206004015460ff166111015760405162461bcd60e51b815260206004820152600e60248201526d139195081b9bdd081b1a5cdd195960921b60448201526064016105f6565b600061110d87876123e9565b60208101519091506001600160a01b031630146111815760405162461bcd60e51b815260206004820152602c60248201527f436f6e747261637420646f65736e2774206861766520616c6c6f77616e63652060448201526b199bdc881d1a1a5cc813919560a21b60648201526084016105f6565b6001600160a01b0385166000908152600560205260409081902090516111a890849061374f565b9081526040519081900360200190206003015460ff166112165760405162461bcd60e51b815260206004820152602360248201527f427579657220646f65736e277420686176652062696420666f7220746869732060448201526213919560ea1b60648201526084016105f6565b83600283604051611227919061374f565b908152602001604051809103902060056000886001600160a01b03166001600160a01b0316815260200190815260200160002084604051611268919061374f565b9081526040519081900360200190205481548110611288576112886137a6565b9060005260206000209060040201600101541461130d5760405162461bcd60e51b815260206004820152603760248201527f54686973206275796572206469646e277420737567676573742074686174207060448201527f726963652076616c756520666f722074686973204e465400000000000000000060648201526084016105f6565b6001600160a01b03851660009081526006602052604090205484111561138c5760405162461bcd60e51b815260206004820152602e60248201527f427579657220646f65736e2774206861766520656e6f7567682053504873206960448201526d1b881d1a194818dbdb9d1c9858dd60921b60648201526084016105f6565b600b548490156114a15760006103e8600b546113a89190613815565b6113b290836137e8565b600a549091506001600160a01b03166114195760405162461bcd60e51b815260206004820152602360248201527f54726561737572792077616c6c65742061646472657373206e6f7420736574206044820152623ab81760e91b60648201526084016105f6565b600954600a5460405163a9059cbb60e01b81526001600160a01b0391821660048201526024810184905291169063a9059cbb906044016020604051808303816000875af115801561146e573d6000803e3d6000fd5b505050506040513d601f19601f82011682018060405250810190611492919061375b565b5061149d81836137d5565b9150505b60405163152a902d60e11b8152600481018890526024810182905260009081906001600160a01b038b1690632a55205a906044016040805180830381865afa1580156114f1573d6000803e3d6000fd5b505050506040513d601f19601f8201168201806040525081019061151591906138a1565b60095460405163a9059cbb60e01b81526001600160a01b03808516600483015260248201849052939550919350919091169063a9059cbb906044016020604051808303816000875af115801561156f573d6000803e3d6000fd5b505050506040513d601f19601f82011682018060405250810190611593919061375b565b5061159e81846137d5565b92506115d3886007876040516115b4919061374f565b908152604051908190036020019020546001600160a01b031685612505565b896001600160a01b03166342842e0e6007876040516115f2919061374f565b908152604051908190036020018120546001600160e01b031960e084901b1682526001600160a01b0390811660048301528b166024820152604481018c9052606401600060405180830381600087803b15801561164e57600080fd5b505af1158015611662573d6000803e3d6000fd5b50505050611670858961284f565b876001600160a01b031660078660405161168a919061374f565b9081526040805160209281900383018120548d82529281018b90526001600160a01b03928316928e16917f6e7a4c46395b56b7d97ccc3926f0db0dac3c760b187854dd2497e50c4dc82d62910160405180910390a460006007866040516116f1919061374f565b908152604051908190036020018120600401805492151560ff1990931692909217909155889060079061172590889061374f565b90815260405190819003602001902080546001600160a01b03929092166001600160a01b031990921691909117905560009a9950505050505050505050565b6008546001600160a01b0316331461178e5760405162461bcd60e51b81526004016105f690613829565b600b55565b6008546001600160a01b031633146117bd5760405162461bcd60e51b81526004016105f690613829565b600a80546001600160a01b0319166001600160a01b0392909216919091179055565b6000806117ec84846123dd565b905060006117fa85856123e9565b80519091506001600160a01b031633148061181f57506008546001600160a01b031633145b61183b5760405162461bcd60e51b81526004016105f690613859565b61184682600061284f565b6000600783604051611858919061374f565b908152602001604051809103902060040160006101000a81548160ff02191690831515021790555080600001516001600160a01b031684866001600160a01b03167f80a72ae9592e395c65a589d23febcc7bef05213af5110bf6e547949373c815036007866040516118ca919061374f565b908152604051602091819003820181206001015481520160405180910390a4506000949350505050565b6001600160a01b0383166000908152600360209081526040808320805482518185028101850190935280835260609493849084015b8282101561198b576000848152602090819020604080516080810182526004860290920180546001600160a01b039081168452600180830154858701526002830154909116928401929092526003015460608301529083529092019101611929565b50505050905061199c818585612636565b95945050505050565b6000806119b285856123dd565b9050336001600160a01b03841614806119d557506008546001600160a01b031633145b611a345760405162461bcd60e51b815260206004820152602a60248201527f596f752068617665206e6f207065726d697373696f6e7320666f72207468697360448201526910333ab731ba34b7b71760b11b60648201526084016105f6565b6001600160a01b038316600090815260056020526040908190209051611a5b90839061374f565b9081526040519081900360200190206003015460ff16611abd5760405162461bcd60e51b815260206004820152601d60248201527f596f752068617665206e6f206269647320666f722074686973204e465400000060448201526064016105f6565b6001600160a01b0383166000908152600560205260408082209051611ae390849061374f565b908152604051908190036020018120549150600090600290611b0690859061374f565b90815260200160405180910390208281548110611b2557611b256137a6565b600091825260209182902060408051608081018252600490930290910180546001600160a01b0390811684526001820154948401949094526002808201549094168383015260030154606083015251909250611b8290859061374f565b90815260200160405180910390208281548110611ba157611ba16137a6565b60009182526020808320600160049093020191909101546001600160a01b038816835260069091526040909120541015611c3c5760405162461bcd60e51b815260206004820152603660248201527f596f752068617665206e6f20656e6f756768206d6f6e657920696e207468652060448201527518dbdb9d1c9858dd081d1bc819195b195d1948189a5960521b60648201526084016105f6565b336001600160a01b031686886001600160a01b03167f14db41ce7a73af30b2195ae2a1cdfe6165695f7af0d286d97da60d47b75318258460200151604051611c8691815260200190565b60405180910390a4611c9d85868360200151612505565b611cab83826000015161296e565b6000979650505050505050565b81516020818401810180516002825292820191850191909120919052805482908110610eea57600080fd5b6000808451118015611cf6575060008351115b8015611d03575060008251115b611d5a5760405162461bcd60e51b815260206004820152602260248201527f4172726179206c656e6774682073686f756c64206265206d6f7265207468616e604482015261020360f41b60648201526084016105f6565b82518451148015611d6c575081518451145b611db15760405162461bcd60e51b8152602060048201526016602482015275082e4e4c2f2e640d8cadccee8d040dad2e6dac2e8c6d60531b60448201526064016105f6565b60005b84518110156121dd576000858281518110611dd157611dd16137a6565b602002602001015190506000858381518110611def57611def6137a6565b602002602001015190506000858481518110611e0d57611e0d6137a6565b602002602001015190506000611e2384846123e9565b60208101519091506001600160a01b03163014611e9d5760405162461bcd60e51b815260206004820152603260248201527f54686520436f6e747261637420646f65736e2774206861766520616c6c6f77616044820152713731b2903337b9103a3434b9903a37b5b2b760711b60648201526084016105f6565b80516001600160a01b03163314611ec65760405162461bcd60e51b81526004016105f690613859565b6000611ed285856123dd565b9050600781604051611ee4919061374f565b9081526040519081900360200190206004015460ff168015611f3b575081600001516001600160a01b0316600782604051611f1f919061374f565b908152604051908190036020019020546001600160a01b031614155b15611f4b57611f4b81600061284f565b6040805160a08101825283516001600160a01b0390811682526020820186905287168183015260608101869052600160808201529051600790611f8f90849061374f565b9081526040805160209281900383018120845181546001600160a01b03199081166001600160a01b039283161783558686015160018401559386015160028301805490951690821617909355606085015160038201556080909401516004909401805460ff19169415159490941790935585835233928792918916917fe065949781be696d3f91077ee93178e3eb0472a4e60456f00a1161fde5735832910160405180910390a461203e6130e7565b60005b600283604051612051919061374f565b9081526040519081900360200190205481101561214657600060028460405161207a919061374f565b90815260200160405180910390208281548110612099576120996137a6565b600091825260209182902060408051608081018252600490930290910180546001600160a01b039081168452600182015494840194909452600281015490931682820152600390920154606082015290519091506007906120fb90869061374f565b908152602001604051809103902060010154816020015110158015612127575082602001518160200151115b15612133579150612146565b508061213e816138cf565b915050612041565b506020810151156121c457805160208201516040516304e524b560e41b81523092634e524b509261217f928b928b9290916004016131e6565b6020604051808303816000875af115801561219e573d6000803e3d6000fd5b505050506040513d601f19601f820116820180604052508101906121c291906137bc565b505b50505050505080806121d5906138cf565b915050611db4565b506000949350505050565b6001600160a01b038316600090815260046020908152604080832080548251818502810185019093528083526060949384908401821561198b576000848152602090819020604080516080810182526004860290920180546001600160a01b039081168452600180830154858701526002830154909116928401929092526003015460608301529083529092019101611929565b6122846130e7565b600061229085856123dd565b604080516080810182526001600160a01b0380871680835260006020808501829052928b1684860152606084018a90529081526005909152828120925193945090929091906122e090859061374f565b908152604080519182900360209081018320608084018352805484526001810154918401919091526002810154918301919091526003015460ff1615156060820181905290915061233557509150610e1b9050565b600283604051612345919061374f565b908152604051908190036020019020815181548110612366576123666137a6565b600091825260209182902060408051608081018252600490930290910180546001600160a01b039081168452600182015494840194909452600281015490931690820152600390910154606082015293505050509392505050565b60036020528160005260406000208181548110610eea57600080fd5b6060610e1b8383612da7565b604080518082019091526000808252602082015260408051808201918290526331a9108f60e11b909152604481018390528390600090806001600160a01b038416636352211e60648301602060405180830381865afa158015612450573d6000803e3d6000fd5b505050506040513d601f19601f8201168201806040525081019061247491906138e8565b6001600160a01b03168152602001836001600160a01b031663081812fc876040518263ffffffff1660e01b81526004016124b091815260200190565b602060405180830381865afa1580156124cd573d6000803e3d6000fd5b505050506040513d601f19601f820116820180604052508101906124f191906138e8565b6001600160a01b0316905295945050505050565b6001600160a01b03831660009081526006602052604090205481111561257b5760405162461bcd60e51b815260206004820152602560248201527f4e6f7420656e6f75676820757365722073706873206f6e2074686520636f6e74604482015264726163742160d81b60648201526084016105f6565b60095460405163a9059cbb60e01b81526001600160a01b038481166004830152602482018490529091169063a9059cbb906044016020604051808303816000875af11580156125ce573d6000803e3d6000fd5b505050506040513d601f19601f820116820180604052508101906125f2919061375b565b506001600160a01b0383163014612631576001600160a01b0383166000908152600660205260408120805483929061262b9084906137d5565b90915550505b505050565b60608351600003612648575082610e1b565b6000826001600160401b0316116126a15760405162461bcd60e51b815260206004820152601f60248201527f7061676553697a65206d7573742062652067726561746572207468616e20300060448201526064016105f6565b6000836001600160401b0316116126fa5760405162461bcd60e51b815260206004820152601b60248201527f706167696e6174696f6e206973207374617274696e672061742031000000000060448201526064016105f6565b600082612708600186613905565b612712919061392c565b6001600160401b03169050845181106127625760405162461bcd60e51b815260206004820152601260248201527150616765206f7574206f6620626f756e647360701b60448201526064016105f6565b60006127776001600160401b03851683613793565b90508551811115612786575084515b600061279283836137d5565b6001600160401b038111156127a9576127a96133fa565b6040519080825280602002602001820160405280156127e257816020015b6127cf6130e7565b8152602001906001900390816127c75790505b509050825b8281101561284457878181518110612801576128016137a6565b602002602001015182858361281691906137d5565b81518110612826576128266137a6565b6020026020010181905250808061283c906138cf565b9150506127e7565b509695505050505050565b60006001600284604051612863919061374f565b9081526040519081900360200190205461287d9190613957565b90505b60008112612631576000819050600060028560405161289f919061374f565b908152602001604051809103902082815481106128be576128be6137a6565b600091825260209182902060408051608081018252600490930290910180546001600160a01b03908116808552600183015495850195909552600282015481169284019290925260030154606083015290925085161461292b578051602082015161292b91908190612505565b61293985826000015161296e565b600160028660405161294b919061374f565b908152604051908190036020019020546129659190613957565b92505050612880565b6000600783604051612980919061374f565b908152604080519182900360209081018320546001600160a01b03868116600090815260059093529290912091169250906129bc90859061374f565b9081526040519081900360200190206003015460ff16612a2a5760405162461bcd60e51b8152602060048201526024808201527f5468657265206973206e6f206269642c20796f752063616e27742072656d6f7660448201526319481a5d60e21b60648201526084016105f6565b6001600160a01b0382166000908152600560205260408082209051612a5090869061374f565b908152604080519182900360209081018320608084018352805484526001810154918401919091526002810154918301919091526003015460ff1615156060820152905060005b60038160ff161015612d57576000808260ff16600003612add57600287604051612ac1919061374f565b9081526020016040518091039020915083600001519050612b2f565b8260ff16600103612b0d5750506001600160a01b0384166000908152600460205260409081902090830151612b2f565b50506001600160a01b0383166000908152600360209081526040909120908301515b8154600090612b40906001906137d5565b90506000838281548110612b5657612b566137a6565b600091825260209182902060408051608081018252600490930290910180546001600160a01b039081168452600182015494840194909452600281015490931690820152600390910154606082015284549091508190859085908110612bbe57612bbe6137a6565b6000918252602091829020835160049092020180546001600160a01b039283166001600160a01b031991821617825592840151600182015560408401516002820180549190931693169290921790556060909101516003909101558354849080612c2a57612c2a613977565b60008281526020812060046000199093019283020180546001600160a01b03199081168255600182018390556002820180549091169055600301819055915560ff86169003612cb35780516001600160a01b0316600090815260056020526040908190209051849190612c9e908c9061374f565b90815260405190819003602001902055612d40565b8460ff16600103612d015780516001600160a01b0316600090815260056020526040908190209051849190612ce9908c9061374f565b90815260405190819003602001902060020155612d40565b80516001600160a01b0316600090815260056020526040908190209051849190612d2c908c9061374f565b908152604051908190036020019020600101555b505050508080612d4f9061398d565b915050612a97565b506001600160a01b0383166000908152600560205260408082209051612d7e90879061374f565b908152604051908190036020019020600301805491151560ff1990921691909117905550505050565b60606000612db484612def565b90506000612dc184612fda565b90508181604051602001612dd69291906139ac565b6040516020818303038152906040529250505092915050565b604080518082018252601081526f181899199a1a9b1b9c1cb0b131b232b360811b60208201528151602a80825260608281019094526001600160a01b0385169291600091602082018180368337019050509050600360fc1b81600081518110612e5a57612e5a6137a6565b60200101906001600160f81b031916908160001a905350600f60fb1b81600181518110612e8957612e896137a6565b60200101906001600160f81b031916908160001a90535060005b6014811015612fd15782600485612ebb84600c613793565b60208110612ecb57612ecb6137a6565b1a60f81b6001600160f81b031916901c60f81c60ff1681518110612ef157612ef16137a6565b01602001516001600160f81b03191682612f0c8360026137e8565b612f17906002613793565b81518110612f2757612f276137a6565b60200101906001600160f81b031916908160001a9053508284612f4b83600c613793565b60208110612f5b57612f5b6137a6565b825191901a600f16908110612f7257612f726137a6565b01602001516001600160f81b03191682612f8d8360026137e8565b612f98906003613793565b81518110612fa857612fa86137a6565b60200101906001600160f81b031916908160001a90535080612fc9816138cf565b915050612ea3565b50949350505050565b6060816000036130015750506040805180820190915260018152600360fc1b602082015290565b816000815b801561302c5781613016816138cf565b92506130259050600a82613815565b9050613006565b6000826001600160401b03811115613046576130466133fa565b6040519080825280601f01601f191660200182016040528015613070576020820181803683370190505b509050825b84156130dd5780613085816139cc565b91506130949050600a866139e3565b61309f906030613793565b60f81b8282815181106130b4576130b46137a6565b60200101906001600160f81b031916908160001a9053506130d6600a86613815565b9450613075565b5095945050505050565b604051806080016040528060006001600160a01b031681526020016000815260200160006001600160a01b03168152602001600081525090565b60006020828403121561313357600080fd5b81356001600160e01b031981168114610e1b57600080fd5b6001600160a01b038116811461316057600080fd5b50565b60008060006060848603121561317857600080fd5b83356131838161314b565b95602085013595506040909401359392505050565b600080604083850312156131ab57600080fd5b50508035926020909101359150565b600080604083850312156131cd57600080fd5b82356131d88161314b565b946020939093013593505050565b6001600160a01b039485168152602081019390935292166040820152606081019190915260800190565b80356001600160401b038116811461322757600080fd5b919050565b6000806000806080858703121561324257600080fd5b843561324d8161314b565b93506020850135925061326260408601613210565b915061327060608601613210565b905092959194509250565b6020808252825182820181905260009190848201906040850190845b818110156132e9576132d683855180516001600160a01b0390811683526020808301519084015260408083015190911690830152606090810151910152565b9284019260809290920191600101613297565b50909695505050505050565b60006020828403121561330757600080fd5b8135610e1b8161314b565b6000806000806080858703121561332857600080fd5b84356133338161314b565b935060208501359250604085013561334a8161314b565b9396929550929360600135925050565b60006020828403121561336c57600080fd5b5035919050565b60008060006060848603121561338857600080fd5b83356133938161314b565b92506133a160208501613210565b91506133af60408501613210565b90509250925092565b6000806000606084860312156133cd57600080fd5b83356133d88161314b565b92506020840135915060408401356133ef8161314b565b809150509250925092565b634e487b7160e01b600052604160045260246000fd5b604051601f8201601f191681016001600160401b0381118282101715613438576134386133fa565b604052919050565b600082601f83011261345157600080fd5b81356001600160401b0381111561346a5761346a6133fa565b61347d601f8201601f1916602001613410565b81815284602083860101111561349257600080fd5b816020850160208301376000918101602001919091529392505050565b6000602082840312156134c157600080fd5b81356001600160401b038111156134d757600080fd5b6134e384828501613440565b949350505050565b600080604083850312156134fe57600080fd5b82356001600160401b0381111561351457600080fd5b61352085828601613440565b95602094909401359450505050565b60006001600160401b03821115613548576135486133fa565b5060051b60200190565b600082601f83011261356357600080fd5b813560206135786135738361352f565b613410565b82815260059290921b8401810191818101908684111561359757600080fd5b8286015b84811015612844578035835291830191830161359b565b6000806000606084860312156135c757600080fd5b83356001600160401b03808211156135de57600080fd5b818601915086601f8301126135f257600080fd5b813560206136026135738361352f565b82815260059290921b8401810191818101908a84111561362157600080fd5b948201945b838610156136485785356136398161314b565b82529482019490820190613626565b9750508701359250508082111561365e57600080fd5b61366a87838801613552565b9350604086013591508082111561368057600080fd5b5061368d86828701613552565b9150509250925092565b81516001600160a01b03908116825260208084015190830152604080840151909116908201526060808301519082015260808101610581565b600080604083850312156136e357600080fd5b82356136ee8161314b565b915060208301356001600160401b0381111561370957600080fd5b61371585828601613440565b9150509250929050565b6000815160005b818110156137405760208185018101518683015201613726565b50600093019283525090919050565b6000610e1b828461371f565b60006020828403121561376d57600080fd5b81518015158114610e1b57600080fd5b634e487b7160e01b600052601160045260246000fd5b808201808211156105815761058161377d565b634e487b7160e01b600052603260045260246000fd5b6000602082840312156137ce57600080fd5b5051919050565b818103818111156105815761058161377d565b80820281158282048414176105815761058161377d565b634e487b7160e01b600052601260045260246000fd5b600082613824576138246137ff565b500490565b6020808252601690820152752737ba103a34329031b7b73a3930b1ba1037bbb732b960511b604082015260600190565b60208082526028908201527f596f752068617665206e6f207065726d697373696f6e20666f72207468697320604082015267333ab731ba34b7b760c11b606082015260800190565b600080604083850312156138b457600080fd5b82516138bf8161314b565b6020939093015192949293505050565b6000600182016138e1576138e161377d565b5060010190565b6000602082840312156138fa57600080fd5b8151610e1b8161314b565b6001600160401b038281168282160390808211156139255761392561377d565b5092915050565b6001600160401b0381811683821602808216919082811461394f5761394f61377d565b505092915050565b81810360008312801583831316838312821617156139255761392561377d565b634e487b7160e01b600052603160045260246000fd5b600060ff821660ff81036139a3576139a361377d565b60010192915050565b60006139b8828561371f565b602f60f81b815261199c600182018561371f565b6000816139db576139db61377d565b506000190190565b6000826139f2576139f26137ff565b50069056fea2646970667358221220c0b957b1cafa70710aadebb3cc8b0cb9ac872b6190ff643b6dbe3bf734ab592c64736f6c63430008120033",
  "devdoc": {
    "kind": "dev",
    "methods": {
      "royaltyInfo(uint256,uint256)": {
        "details": "Returns how much royalty is owed and to whom, based on a sale price that may be denominated in any unit of exchange. The royalty amount is denominated and should be paid in that same unit of exchange."
      },
      "supportsInterface(bytes4)": {
        "details": "See {IERC165-supportsInterface}."
      }
    },
    "version": 1
  },
  "userdoc": {
    "kind": "user",
    "methods": {},
    "version": 1
  },
  "storageLayout": {
    "storage": [
      {
        "astId": 1972,
        "contract": "contracts/NFTMarketplace.sol:NFTMarketplace",
        "label": "_defaultRoyaltyInfo",
        "offset": 0,
        "slot": "0",
        "type": "t_struct(RoyaltyInfo)1969_storage"
      },
      {
        "astId": 1977,
        "contract": "contracts/NFTMarketplace.sol:NFTMarketplace",
        "label": "_tokenRoyaltyInfo",
        "offset": 0,
        "slot": "1",
        "type": "t_mapping(t_uint256,t_struct(RoyaltyInfo)1969_storage)"
      },
      {
        "astId": 7927,
        "contract": "contracts/NFTMarketplace.sol:NFTMarketplace",
        "label": "tokenBids",
        "offset": 0,
        "slot": "2",
        "type": "t_mapping(t_string_memory_ptr,t_array(t_struct(Bid)7893_storage)dyn_storage)"
      },
      {
        "astId": 7933,
        "contract": "contracts/NFTMarketplace.sol:NFTMarketplace",
        "label": "receivedBids",
        "offset": 0,
        "slot": "3",
        "type": "t_mapping(t_address,t_array(t_struct(Bid)7893_storage)dyn_storage)"
      },
      {
        "astId": 7939,
        "contract": "contracts/NFTMarketplace.sol:NFTMarketplace",
        "label": "sentBids",
        "offset": 0,
        "slot": "4",
        "type": "t_mapping(t_address,t_array(t_struct(Bid)7893_storage)dyn_storage)"
      },
      {
        "astId": 7946,
        "contract": "contracts/NFTMarketplace.sol:NFTMarketplace",
        "label": "buyersBidsIndexes",
        "offset": 0,
        "slot": "5",
        "type": "t_mapping(t_address,t_mapping(t_string_memory_ptr,t_struct(BidIndexes)7902_storage))"
      },
      {
        "astId": 7951,
        "contract": "contracts/NFTMarketplace.sol:NFTMarketplace",
        "label": "buyersTokens",
        "offset": 0,
        "slot": "6",
        "type": "t_mapping(t_address,t_struct(BuyerTokens)7905_storage)"
      },
      {
        "astId": 7956,
        "contract": "contracts/NFTMarketplace.sol:NFTMarketplace",
        "label": "nfts",
        "offset": 0,
        "slot": "7",
        "type": "t_mapping(t_string_memory_ptr,t_struct(NFT)7916_storage)"
      },
      {
        "astId": 7958,
        "contract": "contracts/NFTMarketplace.sol:NFTMarketplace",
        "label": "contractOwner",
        "offset": 0,
        "slot": "8",
        "type": "t_address"
      },
      {
        "astId": 7961,
        "contract": "contracts/NFTMarketplace.sol:NFTMarketplace",
        "label": "spheraTokenAddress",
        "offset": 0,
        "slot": "9",
        "type": "t_contract(IERC20)796"
      },
      {
        "astId": 7963,
        "contract": "contracts/NFTMarketplace.sol:NFTMarketplace",
        "label": "treasuryWalletAddress",
        "offset": 0,
        "slot": "10",
        "type": "t_address"
      },
      {
        "astId": 7966,
        "contract": "contracts/NFTMarketplace.sol:NFTMarketplace",
        "label": "taxFee",
        "offset": 0,
        "slot": "11",
        "type": "t_uint256"
      }
    ],
    "types": {
      "t_address": {
        "encoding": "inplace",
        "label": "address",
        "numberOfBytes": "20"
      },
      "t_address_payable": {
        "encoding": "inplace",
        "label": "address payable",
        "numberOfBytes": "20"
      },
      "t_array(t_struct(Bid)7893_storage)dyn_storage": {
        "base": "t_struct(Bid)7893_storage",
        "encoding": "dynamic_array",
        "label": "struct NFTMarketplace.Bid[]",
        "numberOfBytes": "32"
      },
      "t_bool": {
        "encoding": "inplace",
        "label": "bool",
        "numberOfBytes": "1"
      },
      "t_contract(IERC20)796": {
        "encoding": "inplace",
        "label": "contract IERC20",
        "numberOfBytes": "20"
      },
      "t_mapping(t_address,t_array(t_struct(Bid)7893_storage)dyn_storage)": {
        "encoding": "mapping",
        "key": "t_address",
        "label": "mapping(address => struct NFTMarketplace.Bid[])",
        "numberOfBytes": "32",
        "value": "t_array(t_struct(Bid)7893_storage)dyn_storage"
      },
      "t_mapping(t_address,t_mapping(t_string_memory_ptr,t_struct(BidIndexes)7902_storage))": {
        "encoding": "mapping",
        "key": "t_address",
        "label": "mapping(address => mapping(string => struct NFTMarketplace.BidIndexes))",
        "numberOfBytes": "32",
        "value": "t_mapping(t_string_memory_ptr,t_struct(BidIndexes)7902_storage)"
      },
      "t_mapping(t_address,t_struct(BuyerTokens)7905_storage)": {
        "encoding": "mapping",
        "key": "t_address",
        "label": "mapping(address => struct NFTMarketplace.BuyerTokens)",
        "numberOfBytes": "32",
        "value": "t_struct(BuyerTokens)7905_storage"
      },
      "t_mapping(t_string_memory_ptr,t_array(t_struct(Bid)7893_storage)dyn_storage)": {
        "encoding": "mapping",
        "key": "t_string_memory_ptr",
        "label": "mapping(string => struct NFTMarketplace.Bid[])",
        "numberOfBytes": "32",
        "value": "t_array(t_struct(Bid)7893_storage)dyn_storage"
      },
      "t_mapping(t_string_memory_ptr,t_struct(BidIndexes)7902_storage)": {
        "encoding": "mapping",
        "key": "t_string_memory_ptr",
        "label": "mapping(string => struct NFTMarketplace.BidIndexes)",
        "numberOfBytes": "32",
        "value": "t_struct(BidIndexes)7902_storage"
      },
      "t_mapping(t_string_memory_ptr,t_struct(NFT)7916_storage)": {
        "encoding": "mapping",
        "key": "t_string_memory_ptr",
        "label": "mapping(string => struct NFTMarketplace.NFT)",
        "numberOfBytes": "32",
        "value": "t_struct(NFT)7916_storage"
      },
      "t_mapping(t_uint256,t_struct(RoyaltyInfo)1969_storage)": {
        "encoding": "mapping",
        "key": "t_uint256",
        "label": "mapping(uint256 => struct ERC2981.RoyaltyInfo)",
        "numberOfBytes": "32",
        "value": "t_struct(RoyaltyInfo)1969_storage"
      },
      "t_string_memory_ptr": {
        "encoding": "bytes",
        "label": "string",
        "numberOfBytes": "32"
      },
      "t_struct(Bid)7893_storage": {
        "encoding": "inplace",
        "label": "struct NFTMarketplace.Bid",
        "members": [
          {
            "astId": 7886,
            "contract": "contracts/NFTMarketplace.sol:NFTMarketplace",
            "label": "owner",
            "offset": 0,
            "slot": "0",
            "type": "t_address_payable"
          },
          {
            "astId": 7888,
            "contract": "contracts/NFTMarketplace.sol:NFTMarketplace",
            "label": "amount",
            "offset": 0,
            "slot": "1",
            "type": "t_uint256"
          },
          {
            "astId": 7890,
            "contract": "contracts/NFTMarketplace.sol:NFTMarketplace",
            "label": "token",
            "offset": 0,
            "slot": "2",
            "type": "t_address"
          },
          {
            "astId": 7892,
            "contract": "contracts/NFTMarketplace.sol:NFTMarketplace",
            "label": "serialNumber",
            "offset": 0,
            "slot": "3",
            "type": "t_uint256"
          }
        ],
        "numberOfBytes": "128"
      },
      "t_struct(BidIndexes)7902_storage": {
        "encoding": "inplace",
        "label": "struct NFTMarketplace.BidIndexes",
        "members": [
          {
            "astId": 7895,
            "contract": "contracts/NFTMarketplace.sol:NFTMarketplace",
            "label": "tokenIndex",
            "offset": 0,
            "slot": "0",
            "type": "t_uint256"
          },
          {
            "astId": 7897,
            "contract": "contracts/NFTMarketplace.sol:NFTMarketplace",
            "label": "receivedIndex",
            "offset": 0,
            "slot": "1",
            "type": "t_uint256"
          },
          {
            "astId": 7899,
            "contract": "contracts/NFTMarketplace.sol:NFTMarketplace",
            "label": "sentIndex",
            "offset": 0,
            "slot": "2",
            "type": "t_uint256"
          },
          {
            "astId": 7901,
            "contract": "contracts/NFTMarketplace.sol:NFTMarketplace",
            "label": "isSet",
            "offset": 0,
            "slot": "3",
            "type": "t_bool"
          }
        ],
        "numberOfBytes": "128"
      },
      "t_struct(BuyerTokens)7905_storage": {
        "encoding": "inplace",
        "label": "struct NFTMarketplace.BuyerTokens",
        "members": [
          {
            "astId": 7904,
            "contract": "contracts/NFTMarketplace.sol:NFTMarketplace",
            "label": "sphs",
            "offset": 0,
            "slot": "0",
            "type": "t_uint256"
          }
        ],
        "numberOfBytes": "32"
      },
      "t_struct(NFT)7916_storage": {
        "encoding": "inplace",
        "label": "struct NFTMarketplace.NFT",
        "members": [
          {
            "astId": 7907,
            "contract": "contracts/NFTMarketplace.sol:NFTMarketplace",
            "label": "owner",
            "offset": 0,
            "slot": "0",
            "type": "t_address_payable"
          },
          {
            "astId": 7909,
            "contract": "contracts/NFTMarketplace.sol:NFTMarketplace",
            "label": "price",
            "offset": 0,
            "slot": "1",
            "type": "t_uint256"
          },
          {
            "astId": 7911,
            "contract": "contracts/NFTMarketplace.sol:NFTMarketplace",
            "label": "token",
            "offset": 0,
            "slot": "2",
            "type": "t_address"
          },
          {
            "astId": 7913,
            "contract": "contracts/NFTMarketplace.sol:NFTMarketplace",
            "label": "serialNumber",
            "offset": 0,
            "slot": "3",
            "type": "t_uint256"
          },
          {
            "astId": 7915,
            "contract": "contracts/NFTMarketplace.sol:NFTMarketplace",
            "label": "isListed",
            "offset": 0,
            "slot": "4",
            "type": "t_bool"
          }
        ],
        "numberOfBytes": "160"
      },
      "t_struct(RoyaltyInfo)1969_storage": {
        "encoding": "inplace",
        "label": "struct ERC2981.RoyaltyInfo",
        "members": [
          {
            "astId": 1966,
            "contract": "contracts/NFTMarketplace.sol:NFTMarketplace",
            "label": "receiver",
            "offset": 0,
            "slot": "0",
            "type": "t_address"
          },
          {
            "astId": 1968,
            "contract": "contracts/NFTMarketplace.sol:NFTMarketplace",
            "label": "royaltyFraction",
            "offset": 20,
            "slot": "0",
            "type": "t_uint96"
          }
        ],
        "numberOfBytes": "32"
      },
      "t_uint256": {
        "encoding": "inplace",
        "label": "uint256",
        "numberOfBytes": "32"
      },
      "t_uint96": {
        "encoding": "inplace",
        "label": "uint96",
        "numberOfBytes": "12"
      }
    }
  }
}